:05000000020B6D32222D
:0F000B00020A9D0000007E18012A1B1C78FC22AF
:10001B000200030204D06E00807CB1337CB03368E5
:10002B000D0468EF7CB5337CB43378037F10220466
:10003B0068E17D5092F77D457D51BF2140067C8064
:10004B007F017F121204937EA1D05CB00478032051
:10005B00D5C17CB00478075002B2D50204D892D532
:10006B00BE80FF68F67CB89CB06C00602AB41805A3
:10007B007C410204AC50FB80032F00047C9B5E9000
:10008B000778F630E4067C437D106D0030E3087C86
:10009B00437C327C210A0030F5199F10780E220226
:1000AB0004D51B8068F92F1150020B707CB530E71B
:1000BB00F1801B2D317CB5A5397C5B50110B807801
:1000CB00030204D81E341350034E60801A2B020413
:1000DB00AC5D22680D5D0078122D220B4068099FE4
:1000EB0011222D000B0078F90204D01204935C80CE
:1000FB000B806808248150072CB0500A0204D82CBE
:10010B00B040030204D57C8B5D1178267CB17CA5B5
:10011B00BE1080680A5D33780DA5BD80057F100287
:10012B0004C26D0080307F017C5B7CB17CA5AD127D
:10013B0080245D337806A5BD80F080E1CA887D41BF
:10014B00AD437CB17CA5AD122D1450020B047C5B2E
:10015B00AD232F01DA88A42D05BE008040060B804D
:10016B00780480982F007C437C507C617C72020465
:10017B00ACBE24FFFF6806BE04FFFF78030204D069
:10018B001204935CB00468F57CB8A54868EF7CB8A2
:10019B0070039F1122A5B800030204D82E008150D2
:1001AB00079C8038070204D59C8050ED0A51C2E7AA
:1001BB004D5178030204C27E5400807E901A6C006D
:1001CB0080061B9068142F11BF1040049F104CAB7E
:1001DB000330E7EECAA86CAA80E8DA39DA587C4A11
:1001EB00BE5080500A1B8068BC2F1150020B70024E
:1001FB0004AC74F86CAA6E40806E0080BEB0FF68D1
:10020B00277C837C975C3B5C7BBF10682AF4400D9A
:10021B007C382D15F45C3B500F0B04800B7C792D37
:10022B0035F45C7B50020B24BF10680B7CB020E7CD
:10023B00067CB420E701B3225D226809BE24FFFFD0
:10024B0068036E4080227EA020800C7EA01080056B
:10025B007EA0086C556D333392D5500A6E34FFFF78
:10026B006E24FFFF0B1CA5EC3340062F11D5F0F6C7
:10027B00227CBA247EA2D5137C767C65A5CC92E732
:10028B007C5B227CB5337CB43392D54E5080248179
:10029B0040039F11227C457C567C676C7724E05091
:1002AB000E7E1CFFFF221E341E2450034E60800462
:1002BB0078F430D50A6E34FFFF6E24FFFF0B1C223F
:1002CB007CB5A2E7D2E77C1B7CB4334009680DB444
:1002DB00FF0BA5BDFF030204D00204D8227C0B2424
:1002EB0081C2E0F582F4042CB07C2BC3137C4B7CD5
:1002FB00B592E77C5B7F417CB6A2E77CB1A5BA7F68
:10030B0002C313340094007C2B7EA091A47CBA13FF
:10031B00F494FEACB2337CBA33248CD3137C5BE401
:10032B0092E77C6B6C777E403F7583027F517F0138
:10033B007F1412017C7F051200249E240080D5833C
:10034B00EB7E01826C110E041E042D205E407F2279
:10035B003A70FA83BCAAE9E43E81E0F8BF9DE9E676
:10036B003F80000039283C1ABB9969663DA335E3F1
:10037B00BF255DE73FC90FDB418DDBCCC44936EEB2
:10038B0045C9913FC5B0F83D3F800000C317F53418
:10039B00452FFA73C60AFDDD12043204A2E192F76F
:1003AB007DE51420E01C7E94035B7E8400FF7404C7
:1003BB001204E4802112043230E1046EE480002048
:1003CB00E0E47F617E94036F7E8400FF740412046B
:1003DB00E47F061200DC7D5E5D2268055EA0806C0A
:1003EB004A22120432CAB87F617E9403937E840042
:1003FB00FF74031204E47F061200DC7F067F617F2B
:10040B00107E9403837E8400FF74031204E4DAB835
:10041B0030E00B7F0612017C7D5EB2F780BA7F0164
:10042B007F1612017C80AF7DE25E407FBE244F00C1
:10043B0040051BFD0204D07E14F9837E043E22127C
:10044B0000DCBE243F80400E7F0112028E1202514F
:10045B006E4080120024E45D2268242E240180BEAD
:10046B00243F80401A7F0112028E7CB704C2E07CCD
:10047B004BCAB812025B6E4080120024DAB8035DDF
:10048B002268049E240080222D0092D50E104E105F
:10049B00807D422D445002B2D54E50806C447CB8C6
:1004AB00222C4450120B1C7E40005E507FBE180065
:1004BB000078040B806816A2D57CB8137C4B7CB5F6
:1004CB0092E77C5B227E1CFFFF229F11227E24FF82
:1004DB008020D5026C456D3322CAB87F011200DC37
:1004EB00DAB87F510B4A20693400020B4E7F05CAE4
:1004FB00B81200DC0B4A00691400020B4E120024E8
:10050B00DAB81478E822C2D57CB030E708B2D59FB0
:10051B00229F207F027CB430E713B2D59F229F210C
:10052B007F121205479F229F207F028003120547EF
:10053B0030D5069F229F217F12226D0074104D0033
:10054B00780B4D2278278D317D126D22227D437DD4
:10055B00326D222F112D445002A50FBF1040049F66
:10056B00100B901478ED7F016D227D34227D417D3F
:10057B00138D247D022F004004BD0440049D040B09
:10058B00141478F17D237D317D106D0022CA3B7AE6
:10059B000F00867A1F00827E0F00087E1F008A12D2
:1005AB000024120B2E7A1F008E1203C07F017E1FB8
:1005BB0000821202431200DC7F317E1F008E120379
:1005CB00A37E0F00861200DC7F031200247A1F002B
:1005DB00347E1F008E1203C07E0F00861200DC7F5C
:1005EB00317E1F008E1203A37E0F00821200DC7F70
:1005FB00031200247A1F00386D117E0440007E1F09
:10060B00000C12017C7E0F00341200247A1F0010A4
:10061B006D337E2440401202CB7E0F00381200DC7B
:10062B007E0F00341200216DDD7EC440007F061268
:10063B00017C7F717E1F000C7F0612017C7F0712ED
:10064B0000247A1F00146D337E2440401202CB7EAF
:10065B000F00381200DC7F017E1F003412024312A0
:10066B0000216DDD7EC440007F0612017C7F717E10
:10067B001F000C7F0612017C7F071200247A1F00DB
:10068B00187A1F00927E1F00107E0F001412069E18
:10069B00DA3B227F607F517E0F000C12017C7F7151
:1006AB009F001201FD50049F11801E6D117E043FAF
:1006BB00807F171201FD28086D337E243F8080094F
:1006CB007E0F000C7F1512017C7A1F00287E0F0015
:1006DB000C7F1612017C7F719F001201FD50049F4D
:1006EB0011801E6D117E043F807F171201FD2808BB
:1006FB006D337E243F8080097E0F000C7F16120124
:10070B007C7A1F002C7E0F000C7E1F009212017C46
:10071B007F719F001201FD50049F1180206D117E8F
:10072B00043F807F171201FD28086D337E243F8024
:10073B00800B7E0F000C7E1F009212017C7A1F0033
:10074B0030E4CAB86D117E0442C87E1F0028120027
:10075B00DC12028EDAB81209837401CAB86D117EED
:10076B000442C87E1F002C1200DC12028EDAB81273
:10077B0009837402CAB86D117E0442C87E1F003013
:10078B001200DC12028EDAB8020983CA3B12002176
:10079B007A1F00487E0F00401201FD50067E4F006D
:1007AB004080177E1F00487E0F00441201FD280673
:1007BB007E4F004480047E4F00487E0F004C7E1F0E
:1007CB0000481200217F517E7F00547F177F041257
:1007DB0000DC7F317E0F00487E6F00587F161200C1
:1007EB00DC7F031200247F317E1F00507F05120037
:1007FB00DC7F031200247F317E0F005C1201FD5061
:10080B00067E1F005C80387E0F00607F131201FD97
:10081B0028067E1F006080277F177F041200DC7F75
:10082B00717E0F00487F161200DC7F071200247FB9
:10083B00717E1F00507F051200DC7F071200247EA3
:10084B000F00487A0F004CDA3B22CA797CFB7D13F0
:10085B003E146D007E341B007E2400B71205117F01
:10086B00011B0CBE08FFFF28047E08FFFF7A170050
:10087B0096E47AB3009C7AB3009D7AB3009E7E34E3
:10088B00FEC07E24007E7A1BB06CEE7E54FED07EC2
:10089B0044007E7A2BE07E54FED17A2BE07E54FE10
:1008AB00D27A2B207CB37E14FED37E04007E7A0B8F
:1008BB00B07E14FEDE7A0BF074687E14FEC87A0BE1
:1008CB00B07E14FEC97A0BB07E14FECA7A0BB074DC
:1008DB00557E14FECC7A0BB07E14FECD7A0BB07E17
:1008EB001BB044207A1BB074807E14FEDD7A0BB0F3
:1008FB00743F7E14FEB17A0BB07E1BB044017A1BA1
:10090B00B0DA79227F717E3700684D33780F7A7FAA
:10091B00006E7E3400017A3700687F17227E4F000D
:10092B006E7A4F00647E0F00767E1F006A120024E1
:10093B007F617A1F007E7E0F007A1200247F017F79
:10094B001612017C7F517A1F00727F177F041200F1
:10095B00217F051200DC7F041200247F717A1F00B7
:10096B006E6D337E243F807F051200217F061200BF
:10097B00DC7A1F006A7F17227CA77C3BBEA0642811
:10098B00037EA0640A3A7E270096AD327E24006473
:10099B008D321B30681F1B3068320B31784A7AA3BB
:1009AB00009C7E14FED57E04007E7A0B607C377E25
:1009BB0034FED6802C7AA3009D7E14FED77E0400D5
:1009CB007E7A0B607C377E34FED880157AA3009E2E
:1009DB007E14FED97E04007E7A0B607C377E34FE5B
:1009EB00DA7E24007E7A1B30227CABE47C6A1B60AF
:1009FB00680C1B60680C0B61780A74038006740C1E
:100A0B00800274304C77681ABEA00250067E14FE2A
:100A1B00CC80047E14FECD7E04007E7E0B704C7B5E
:100A2B00801CBEA002500864FF7E14FECC800664BE
:100A3B00FF7E14FECD7E04007E7E0B705C7B7A0BFA
:100A4B0070227D137EF4FEC07EE4007E7E7BB0546C
:100A5B00FE7A7BB03E146D007E341B007E2400B703
:100A6B001205117F011B0CBE08FFFF28047E08FF37
:100A7B00FF7D317A1700967E34FED27E24007E7A7B
:100A8B001B207E34FED37A1B307E7BB044017A7BF5
:100A9B00B022CA2BCA1BCA0BC0D1C0D0758CFF7534
:100AAB008A007E1F009F7A1F00987E14D70A7E044F
:100ABB003C231200247A1F009F7EB300A3047AB359
:100ACB0000A37E7300A30A37BE344E204805E47A98
:100ADB00B300A3D0D0D0D1DA0BDA1BDA2B327F7173
:100AEB006D117E0440407E1F000C12017C7A1F00AA
:100AFB00207E0F00247F171200DC7E0F001C1200DB
:100B0B0024120B2E7A1F001C7E140001120C077F7F
:100B1B00217E1F00209F007A2F008A1205987E1FCE
:100B2B000020227F71800F7E140FDB7E0440C97F73
:100B3B00171200217F717E140FDB7E0440C97F17D3
:100B4B001201FD38E2800F7E140FDB7E0440C97F5B
:100B5B00171200247F719F007F171201FD40E87F61
:100B6B0017227584017E44041FE47A49B01B447834
:100B7B00F97EF800B37E0400FF7E140C230B0A40B1
:100B8B005D44681A692000020B0E0B44800A7E0B31
:100B9B00B07A29B00B240B0C1B4478F280DF020BCC
:100BAB00F97594FF7593007592FF7591007E344E25
:100BBB00207410120855120BE902000E7A1F005810
:100BCB007A0F00547E1F00B07A1F0050227A1F004C
:100BDB00A87A0F00AC7E1F00AC7E0F00A8224389C1
:100BEB0001758CFF758A00D2A9D2AFD28C22120B61
:100BFB00AC6D337E2440A0120AE980F57F717D2114
:100C0B007CB41202567F070200DC438910758DFFFE
:100C1B00758B00D2ABD28E220004000800000000BE
:100C2B000004000C41400000000400243A83126FC2
:100C3B00000100A3000004004800000000000400B5
:100C4B004C00000000000400503DCCCCCD00040053
:100C5B00543DCCCCCD000400583DCCCCCD00020093
:100C6B006800000004006A3F8000000004006E0072
:100C7B00000000000400763C23D70A0004007A3DF4
:050C8B00CCCCCD0000FF
:00000001FF
