:030000000206B342
:10000B000206620204686E00807CB1337CB03368F8
:10001B000D0468EF7CB5337CB43378037F10220476
:10002B0068E17D5092F77D457D51BF2140067C8074
:10003B007F017F1212042B7EA1D05CB004780320C9
:10004B00D5C17CB00478075002B2D502047092D5AA
:10005B00BE80FF68F67CB89CB06C00602AB41805B3
:10006B007C4102044450FB80032F00047C9B5E9078
:10007B000778F630E4067C437D106D0030E3087C96
:10008B00437C327C210A0030F5199F10780E220236
:10009B00046D1B8068F92F1150020B707CB530E793
:1000AB00F1801B2D317CB5A5397C5B50110B807811
:1000BB00030204701E341350034E60801A2B02048B
:1000CB00445D22680D5D0078122D220B4068099F5C
:1000DB0011222D000B0078F902046812042B5C80AE
:1000EB000B806808248150072CB0500A0204702C36
:1000FB00B0400302046D7C8B5D1178267CB17CA52E
:10010B00BE1080680A5D33780DA5BD80057F100297
:10011B00045A6D0080307F017C5B7CB17CA5AD12F5
:10012B0080245D337806A5BD80F080E1CA887D41CF
:10013B00AD437CB17CA5AD122D1450020B047C5B3E
:10014B00AD232F01DA88A42D05BE008040060B805D
:10015B00780480982F007C437C507C617C72020475
:10016B0044BE24FFFF6806BE04FFFF780302046849
:10017B0012042B5CB00468F57CB8A54868EF7CB81A
:10018B0070039F1122A5B800030204702E0081504A
:10019B00079C80380702046D9C8050ED0A51C2E722
:1001AB004D51780302045A7E5400807E901A6C00E5
:1001BB0080061B9068142F11BF1040049F104CAB8E
:1001CB000330E7EECAA86CAA80E8DA39DA587C4A21
:1001DB00BE5080500A1B8068BC2F1150020B70025E
:1001EB00044474F86CAA6E40806E0080BEB0FF6849
:1001FB00277C837C975C3B5C7BBF10682AF4400DAB
:10020B007C382D15F45C3B500F0B04800B7C792D47
:10021B0035F45C7B50020B24BF10680B7CB020E7DD
:10022B00067CB420E701B3225D226809BE24FFFFE0
:10023B0068036E4080227EA020800C7EA01080057B
:10024B007EA0086C556D333392D5500A6E34FFFF88
:10025B006E24FFFF0B1CA5EC3340062F11D5F0F6D7
:10026B00227CBA247EA2D5137C767C65A5CC92E742
:10027B007C5B227CB5337CB43392D54E5080248189
:10028B0040039F11227C457C567C676C7724E050A1
:10029B000E7E1CFFFF221E341E2450034E60800472
:1002AB0078F430D50A6E34FFFF6E24FFFF0B1C224F
:1002BB007CB5A2E7D2E77C1B7CB4334009680DB454
:1002CB00FF0BA5BDFF03020468020470227C0B2404
:1002DB0081C2E0F582F4042CB07C2BC3137C4B7CE5
:1002EB00B592E77C5B7F417CB6A2E77CB1A5BA7F78
:1002FB0002C313340094007C2B7EA091A47CBA1310
:10030B00F494FEACB2337CBA33248CD3137C5BE411
:10031B0092E77C6B6C777E403F7583027F517F0148
:10032B007F1412016C7F051200149E240080D5836C
:10033B00EB7E01826C110E041E042D205E407F2289
:10034B001203CA04A2E192F77DE51420E0187E8423
:10035B008000740412047C801D1203CA30E1046E09
:10036B00E4800020E0E87F617E8480147404120432
:10037B007C7F061200CC7D5E5D2268055EA0806CE2
:10038B004A221203CACAB87F617E84803874031272
:10039B00047C7F061200CC7F067F617F107E8480F9
:1003AB0028740312047CDAB830E00B7F0612016C60
:1003BB007D5EB2F780C27F017F1612016C80B77D24
:1003CB00E25E407FBE244F0040051BFD0204687EA9
:1003DB0014F9837E043E221200CCBE243F80400ED3
:1003EB007F0112027E1202416E4080120014E45D06
:1003FB002268242E240180BE243F80401A7F0112E4
:10040B00027E7CB704C2E07C4BCAB812024B6E4032
:10041B0080120014DAB8035D2268049E2400802247
:10042B002D0092D50E104E10807D422D445002B2FD
:10043B00D54E50806C447CB8222C4450120B1C7E41
:10044B0040005E507FBE18000078040B806816A237
:10045B00D57CB8137C4B7CB592E77C5B227E1CFF72
:10046B00FF229F11227E24FF8020D5026C456D3325
:10047B0022CAB87F011200CCDAB87F510B88204911
:10048B003800020B867F05CAB81200CC0B880049D6
:10049B001800020B86120014DAB81478E822CA3B53
:1004AB007A0D407A1D3C7E1D441206F57A1D4412CE
:1004BB0003647F017E1D3C1202331200CC7F317E20
:1004CB001D4412034B7E0D401200CC7F031200140F
:1004DB007A1D307E1D441203647E0D401200CC7FCA
:1004EB00317E1D4412034B7E0D3C1200CC7F031258
:1004FB0000147A1D346D117E0440007E1D0812011C
:10050B006C7E0D301200147A1D0C6D337E2440402E
:10051B001202BB7E0D341200CC7E0D301200116D19
:10052B00DD7EC440007F0612016C7F717E1D087F4B
:10053B000612016C7F071200147A1D106D337E2496
:10054B0040401202BB7E0D341200CC7F017E1D3069
:10055B001202331200116DDD7EC440007F061201C2
:10056B006C7F717E1D087F0612016C7F07120014D1
:10057B007A1D147A1D487E1D0C7E0D1012058DDA26
:10058B003B227F607F517E0D0812016C7F719F00B3
:10059B001201ED50049F11801D6D117E043F807F71
:1005AB00171201ED28086D337E243F8080087E0DE5
:1005BB00087F1512016C7A1D247E0D087F1612011F
:1005CB006C7F719F001201ED50049F11801D6D1106
:1005DB007E043F807F171201ED28086D337E243F88
:1005EB008080087E0D087F1612016C7A1D287E0D07
:1005FB00087E1D4812016C7F719F001201ED5004A3
:10060B009F6680206D117E043F807F171201ED28BD
:10061B00086DDD7EC43F80800B7E0D087E1D481269
:10062B00016C7F617A6D2C6DFF7EE442C87E1D24C8
:10063B007F071200CC12027E7A71507E1D287F0735
:10064B001200CC12027E7A71517F167F071200CCFA
:10065B0012027E7A715222CAB8C0D10554E554BE3B
:10066B00B0644003755400E550BEB1542805754C79
:10067B00018003754C00E551BEB1542805754D0141
:10068B008003754D00E552BEB1542805754E0180AF
:10069B0003754E00E553BEB1542805754F01800319
:1006AB00754F00D0D1DAB8327584017E44041FE453
:1006BB007A49B01B4478F97EF800547554007E04D7
:1006CB0000FF7E1407EA0B0A405D44681A6920009C
:1006DB00020B0E0B44800A7E0BB07A29B00B240B55
:1006EB000C1B4478F280DF0207B67F71800F7E14FB
:1006FB000FDB7E0440C97F171200117F717E140F30
:10070B00DB7E0440C97F171201ED38E2800F7E14A7
:10071B000FDB7E0440C97F171200147F719F007F8F
:10072B00171201ED40E87F17227F716D117E044097
:10073B00407E1D0812016C7A1D1C7E0D207F171246
:10074B0000CC7E0D181200141206F57A1D187E14BB
:10075B0000011207C47F217E1D1C9F007A2D4412BD
:10076B0004A97E1D1C227CA714680E14680F146844
:10077B00102403780F7AA150227AA151227AA15228
:10078B00227AA15322E54C24FF9280E54D24FF925F
:10079B0081E54E24FF9282225389F0438902758CA6
:1007AB0038758A38D2A9D28CD2AF221207D26D33C8
:1007BB007E24400012073480F57F717D217CB412BA
:1007CB0002467F070200CC7594FF7593001207A3B6
:1007DB000207DE0000007E18012A1B1C78FC220099
:1007EB0004000841400000000400203A83126F000F
:0107FB0000FD
:00000001FF
